:0300000002078C68
:0100030032CA
:03000B000203C627
:0100130032BA
:01001B0032B2
:0100230032AA
:01002B0032A2
:10002C00C00078B10000D8FCD00022C000C001791B
:10003C002D78A6D8FED9FADAF6D001D00022D293C8
:10004C0012002CC29322A2E792B5A2E692B4A2E5CA
:10005C0092B3A2E492B212004A12002CA2E392B51F
:10006C00A2E292B4A2E192B3A2E092B212004A22AE
:10007C00D291020052C291020052C293C2927433C6
:10008C0012008174331200817432120081742812B0
:10009C000081740C1200817401120081C0027A027A
:1000AC00120037D00222E493600612007CA380F683
:1000BC002244404480020081C0E0E8C4540F443024
:1000CC0012007CE8540F443012007CD0E022C0E0D7
:1000DC00E8C4540F4430120426E8540F4430120480
:0400EC0026D0E02218
:1000F000C0E0C0D0C000C001C002E4F558F559F519
:100100005AF55BF55C7A20E553A2E779047850E66E
:1001100033F608D9FA79057858E636D4F608D9F9CD
:10012000DAE5D002D001D000D0D0D0E022C0E0C0CB
:10013000D0C000C001C002E4F558F559F55AF55B8E
:10014000F55C7A20E553A2E779047850E633F608A7
:10015000D9FA79057858C0D0E6243320E70224D0B4
:1001600020E30224FDD0D033F608D9EADAD6D00253
:10017000D001D000D0D0D0E022C0E0C0D0C000C0BC
:1001800001C0027A207905C3785CE613C0D030E75D
:100190000224D030E30224FDF618D0D0D9EC790443
:1001A0007853E613F618D9FADADBD002D001D00082
:1001B000D0D0D0E022C0E0C0D0E5502554F550E5C5
:1001C000513555F551E5523556F552E5533557F54C
:1001D00053D0D0D0E022C0E0C0D0C3E5509554F554
:1001E00050E5519555F551E5529556F552E5539523
:1001F00057F553D0D0D0E022C0E0C0D0C3E5509531
:1002000054E5519555E5529556E55395579200D0D2
:10021000D0D0E022C0E0C0D0C3E5549550E555955C
:1002200051E5569552E55795539200D0D0D0E02233
:10023000C0E0C0D0C200C3E55495507014E5559598
:1002400051700EE55695527008E55795537002D2DD
:1002500000D0D0D0E022120230200003020214228B
:100260001202302000030201F822C0E0C0F0C0D02A
:10027000C000C001C002C003E5508554F0A4F8A935
:10028000F0E5518554F0A429F9E435F0FAE55085FC
:1002900055F0A429F9E5F03AFAE433FBE552855428
:1002A000F0A42AFAE5F03BFBE5518555F0A42AFAC3
:1002B000E5F03BFBE5508556F0A42AFAE5F03BFB60
:1002C000E5538554F0A42BFBE5528555F0A42BFB98
:1002D000E5518556F0A42BFBE5508557F0A42BFB88
:1002E0008B538A5289518850D003D002D001D0005C
:1002F000D0D0D0F0D0E022C0E0C0D0C000C001C05B
:1003000002C003C0047C20E4F8F9FAFBC3E55033D3
:10031000F550E55133F551E55233F552E55333F5D8
:1003200053E833F8E933F9EA33FAEB33FBC3E895E2
:1003300054E99555EA9556EB95574013E89554F8CE
:10034000E99555F9EA9556FAEB9557FB435001DCD0
:10035000BBD004D003D002D001D000D0D0D0E02256
:1003600020202020202020200020202020202020AD
:10037000202020202020202000436F6E737400492D
:100380006E6300446563002D5761726E696E672D60
:10039000002D544F4F20484F542D004D61783D2083
:1003A00020204D696E3D004F6E00202000E58954ED
:1003B000F04401F589758CEA758AE875F4EA75F2FE
:1003C000E8D2A9D28C22C0E0C0D0E568B40105B261
:1003D000B70203D6C2B7D0D0D0E032783012042EA4
:1003E000C0E0C39410D0E04004F60880F0E4F622A8
:1003F00079DE78A6D8FED9FA438780759852759B26
:1004000000759AF4759B1E22D2A2C2A322C0E07985
:10041000007A08E833F892A1D2A3A2A2E933F9C284
:10042000A3DAF0D0E0223099FDC299F599223098F4
:10043000FDC298E59922E4936006120426A380F693
:1004400022C0E0E569B4000CC0027AFA120037D08D
:100450000202047BC0027AFA120037D002C0027A8C
:10046000FA120037D002C0027AFA120037D002C066
:10047000027AFA120037D00202047BD0E022C2A036
:10048000780112040D788012040DE95403F54F78B9
:100490005512040D894ED2A01206B812044122C092
:1004A000E0740C141200BDD0E0C000A85C1200C4BF
:1004B000D000C000A85B1200C4D000C000A85A122F
:1004C00000C4D000C000A8591200C4D000C000A8C9
:1004D000581200C4D00022854E50854F51755200ED
:1004E00075530075549A755501755600755700126D
:1004F000026A7554FF755503755600755700120250
:10050000F77554117555017556007557001201D6CF
:100510001206CB1205211205EC1200F022200D0A62
:1005200000C0E0E550C0E020C55EC0027A32120093
:1005300037D00220C55230C5FDE55EB40022755E9D
:1005400001C0E0740F141200BDD0E0C083C082C0AF
:10055000E09003A71200B2D0E0D082D083020588D9
:10056000755E00756600756544C0E0740F14120076
:10057000BDD0E0C083C082C0E09003AA1200B2D018
:10058000E0D082D0830205887401B55E581200F075
:10059000E558B566004002F566B565004003020502
:1005A000A3F565C0E07401141200BDD0E0C083C0A3
:1005B00082C0E090039B1200B2D0E0D082D083C012
:1005C000E07405141200BDD0E0C000A8661200C49B
:1005D000D000C0E0740C141200BDD0E0C000A865CB
:1005E0001200C4D000D0E0F550D0E022C0E0E550C9
:1005F000C0E0E5501200F0E558B56441C0E0740970
:10060000141200BFD0E0C083C082C0E0900360122B
:1006100000B2D0E0D082D083C0E07408141200BFD2
:10062000D0E0C083C082C0E09003871200B2D0E067
:10063000D082D0837567017568000206AD403EC068
:10064000E07409141200BFD0E0C083C082C0E09003
:1006500003601200B2D0E0D082D083C0E0740814EE
:100660001200BFD0E0C083C082C0E09003911200AE
:10067000B2D0E0D082D0831206B40206ADE567B4F2
:1006800000067568000206AD756700C0E0740914C5
:100690001200BFD0E0C083C082C0E09003601200AF
:1006A000B2D0E0D082D0837568000206ADD0E0F50C
:1006B00050D0E022756801221204D7C000A8581259
:1006C00000DAD00090051D12043622C0E0E55DB5C9
:1006D000503BC0E07401141200BFD0E0C083C08260
:1006E000C0E09003691200B2D0E0D082D083C0E0B5
:1006F0007401141200BFD0E0C083C082C0E0900338
:10070000791200B2D0E0D082D083020785403BC08E
:10071000E07401141200BFD0E0C083C082C0E0903A
:1007200003691200B2D0E0D082D083C0E07401141B
:100730001200BFD0E0C083C082C0E09003831200EB
:10074000B2D0E0D082D083020785C0E074011412D9
:1007500000BFD0E0C083C082C0E09003691200B245
:10076000D0E0D082D083C0E07401141200BFD0E08A
:10077000C083C082C0E090037F1200B2D0E0D0827C
:10078000D083020785E550F55DD0E02275817F12A8
:1007900003AD75E60075E700D2AF1203F01204084E
:1007A000120086C0E07401141200BFD0E0C083C004
:1007B00082C0E09003691200B2D0E0D082D083C042
:1007C000E07401141200BFD0E07440D4F5647444A6
:1007D000D4F5657400D4F566755E0012047E20A51C
:1007E00012C0027A32120037D00220A50630A5FDD1
:1007F0000207F6020804E569B400067569010208FB
:07080000047569000207DB2B
:00000001FF
